{
  "contractName": "Commitee",
  "abi": [
    {
      "constant": false,
      "inputs": [],
      "name": "participate",
      "outputs": [],
      "payable": true,
      "stateMutability": "payable",
      "type": "function"
    },
    {
      "constant": true,
      "inputs": [],
      "name": "getParticipants",
      "outputs": [
        {
          "internalType": "address[]",
          "name": "",
          "type": "address[]"
        }
      ],
      "payable": false,
      "stateMutability": "view",
      "type": "function"
    },
    {
      "constant": true,
      "inputs": [],
      "name": "getParticipantNumber",
      "outputs": [
        {
          "internalType": "uint256",
          "name": "",
          "type": "uint256"
        }
      ],
      "payable": false,
      "stateMutability": "view",
      "type": "function"
    },
    {
      "constant": true,
      "inputs": [],
      "name": "getBalance",
      "outputs": [
        {
          "internalType": "uint256",
          "name": "",
          "type": "uint256"
        }
      ],
      "payable": false,
      "stateMutability": "view",
      "type": "function"
    },
    {
      "constant": false,
      "inputs": [],
      "name": "sendCommitte",
      "outputs": [],
      "payable": false,
      "stateMutability": "nonpayable",
      "type": "function"
    }
  ],
  "bytecode": "0x6080604052336000806101000a81548173ffffffffffffffffffffffffffffffffffffffff021916908373ffffffffffffffffffffffffffffffffffffffff160217905550600060025534801561005557600080fd5b506102ea806100656000396000f3fe60806040526004361061004a5760003560e01c806312065fe01461004f5780635aa68ac01461007a578063b7f4a44c146100e6578063d11711a2146100fd578063e0bc7e6d14610107575b600080fd5b34801561005b57600080fd5b50610064610132565b6040518082815260200191505060405180910390f35b34801561008657600080fd5b5061008f61013a565b6040518080602001828103825283818151815260200191508051906020019060200280838360005b838110156100d25780820151818401526020810190506100b7565b505050509050019250505060405180910390f35b3480156100f257600080fd5b506100fb6101c8565b005b610105610235565b005b34801561011357600080fd5b5061011c6102ab565b6040518082815260200191505060405180910390f35b600047905090565b606060018054806020026020016040519081016040528092919081815260200182805480156101be57602002820191906000526020600020905b8160009054906101000a900473ffffffffffffffffffffffffffffffffffffffff1673ffffffffffffffffffffffffffffffffffffffff1681526020019060010190808311610174575b5050505050905090565b6000809054906101000a900473ffffffffffffffffffffffffffffffffffffffff1673ffffffffffffffffffffffffffffffffffffffff163373ffffffffffffffffffffffffffffffffffffffff161461022157600080fd5b600260008154809291906001019190505550565b60023414610242576102a9565b60013390806001815401808255809150509060018203906000526020600020016000909192909190916101000a81548173ffffffffffffffffffffffffffffffffffffffff021916908373ffffffffffffffffffffffffffffffffffffffff160217905550505b565b600060025490509056fea265627a7a723158201df727b58cdb854de69b6919b18f774044e9c43f14f88637ebff43239700952164736f6c63430005100032",
  "source": "// SPDX-License-Identifier: GPL-3.0\r\n\r\npragma solidity >=0.4.22 <0.9.0;\r\n\r\ncontract Commitee {\r\n    address owner = msg.sender;\r\n    address[] participants;\r\n    uint256 participantNumber = 0;\r\n\r\n    modifier onlyOwner() {\r\n        require(msg.sender == owner);\r\n        _;\r\n    }\r\n\r\n    function participate() public payable {\r\n        if (msg.value != 2) {\r\n            return;\r\n        } else {\r\n            participants.push(msg.sender);\r\n        }\r\n    }\r\n\r\n    function getParticipants() public view returns (address[] memory) {\r\n        return participants;\r\n    }\r\n\r\n    function getParticipantNumber() public view returns (uint256) {\r\n        return participantNumber;\r\n    }\r\n\r\n    function getBalance() public view returns (uint256) {\r\n        return address(this).balance;\r\n    }\r\n\r\n    function sendCommitte() external onlyOwner {\r\n        // address payable tempAddress = payable(participants[participantNumber]); // Run alright at remix but truffle shows problem\r\n        // tempAddress.transfer(address(this).balance);\r\n        participantNumber++;\r\n    }\r\n}\r\n",
  "sourcePath": "E:\\Commitee\\contracts\\Commitee.sol",
  "compiler": {
    "name": "solc",
    "version": "0.5.16+commit.9c3226ce.Emscripten.clang"
  },
  "schemaVersion": "3.4.3",
  "updatedAt": "2021-10-11T20:43:58.860Z",
  "devdoc": {
    "methods": {}
  },
  "userdoc": {
    "methods": {}
  }
}